:02000000D72AFD
:1000060083120313F801F9011030FC00710DF80D8D
:10001600F90D7408F8027508031C750FF902031828
:100026001B287408F80775080318750FF9070310DD
:0A003600F00DF10DFC0B0928080085
:10004000831203131A08F100981C28281812181696
:060050007108F000080039
:1000560083120313FB01FA01F9018030F800F10C59
:10006600F00C031C3F287408F90775080318750F70
:10007600FA070318FB0A0310F01F47287408FA074B
:1000860075080318750FFB07FB0CFA0CF90CF80C36
:10009600031C32287B08F3007A08F2007908F10085
:0600A6007808F0000800DC
:0E00AC008312031326088A002508820008002C
:1000BA00831603139818632800005D2883124108E9
:0400CA009900080091
:0E00CE00073083120313FD00FD0B6B280800A2
:1000DC0083120313C4010530440203187C2844081E
:1000EC004307840020308000C40A71284408430769
:1000FC0084008001C40344084307C5000A30F4009F
:10010C00F5014108F0004208F10003207808F000E6
:10011C007908F1003030F007450884007008800041
:10012C000A30F400F5014108F0004208F100032008
:10013C007008C1007108C20000307106031DA828A8
:10014C0000307006031DAB28AD28C40381280800BD
:10015C00831203137008F100F0010830FC007108E1
:10016C00F40C0318BD28FC0BB628F1010034031065
:10017C00C228F40C0318F107F10CF00CFC0BBF288F
:02018C00080069
:0E018E000030831203138C1A0130F0000800B9
:10019C00C330831203139F05C0309F002F08F0005B
:1001AC00F00D7010F00D701070089F042009F00015
:1001BC00700883169F059F1783121F1467209F14C6
:1001CC009F1CEA280000E6281F101E08F100F00111
:0C01DC0083161E08F0040030F104080037
:1001E80083120313B801B901BA01BB01BC01BD01F7
:1001F8000A30BE000030BF00FF30A100FF30A2006F
:10020800FF30A300FF30A4008316061083120614E3
:100218000630FD00FD0B0E29000006101830FC000A
:100228005F30FD00FD0B1629FC0B1629061407305C
:10023800FD00FD0B1D29831606140330FD00FD0B80
:1002480023298312061C2B29FF30F0002C2A1A3090
:10025800FD00FD0B2D29000006183529FF30F000A0
:100268002C2A1A30FD00FD0B37290000B801053093
:10027800380203187729B90108303902031875299B
:100288000618472944290930FD00FD0B49290000BB
:100298000000061C5F2938082F3EF300730884000D
:1002A8000008F2007208F000F00D70107014730866
:1002B8008400700880000618702938082F3EF30063
:1002C800730884000008F2007208F000F00D701046
:1002D8007308840070088000061C73297029B90A05
:1002E8004029B80A3B2983160610831206143008E1
:1002F8002F07F000F1010318F10A3108F00703187D
:10030800F10A32087007F20071080318013EF30081
:1003180000307306031D922933087206031D2A2A2A
:100328002F08BA00BB013108BC00BD010A30BE006D
:100338000030BF00B801023038020318D429380849
:10034800343EC0003E08F4003F08F5003A08F000CB
:100358003B08F1000320400884007008800038083A
:10036800343E84000008F0000030F1003E08F4003C
:100378003F08F5002B207008BA02031CBB03710864
:10038800BB020A30F4000030F5003E08F0003F08D8
:10039800F10003207008BE007108BF00B80A9F2949
:1003A8000A30BE000030BF000230B8000430380206
:1003B80003180F2A3808343EC0003E08F4003F08EE
:1003C800F5003C08F0003D08F100032040088400D7
:1003D800700880003808343E84000008F0000030BF
:1003E800F1003E08F4003F08F5002B207008BC021D
:1003F800031CBD037108BD020A30F4000030F5008B
:100408003E08F0003F08F10003207008BE007108A4
:10041800BF00B80ADA293608F0000A30F400AE2026
:1004280037087007A10071080318013EA2003408BC
:10043800F0000A30F400AE2035087007A3007108F8
:100448000318013EA4000130F0002C2AFF30F00010
:0204580008009A
:10045A0083120313B401B5012F08B6003008B700A0
:10046A0080303006F00080307002031D3E2A0030D2
:10047A002F0203184C2A0130B4000030B5002F08AF
:10048A00003CB6003008031C013EB701B70236082B
:10049A00C1003708C2003108C3006E200630B2001E
:1004AA000030B3003308003C031D5D2A3208003CCB
:1004BA000318782A32083107F20001303202F000BC
:1004CA000030031C013E3302F1007008310784003A
:1004DA000008F00072088400700880000130B2023F
:1004EA00031CB303572A31088400203080003408E3
:1004FA0035040319962AB201B30132083107840080
:10050A000008203A031D8D2AB20A0319B30A822A67
:10051A000130B202031CB3033208310784002D30C4
:04052A008000080045
:10052E00303083120313AF00C72070080319A22ABC
:0C053E0020207008AF002F08F00008001B
:10054A008316031398169030831298008316871720
:10055A00071383128C1EB42A1A08F000AE2A080068
:10056A0083120313B1012F0884000008B000300879
:10057A00003A0319CA2A3008C1005D20B10A3108BD
:0C058A002F0784000008B000BC2A080005
:1005960056208A110A128000840AA50A0319A60A9F
:0805A600F003031DCB2A08003D
:1005AE006823413083120313AE0001308316031704
:1005BE00880089010130031385008312850183169B
:1005CE008601083083128600831688018312880103
:1005DE008316890183128901193083169900181523
:1005EE00A5228230FC00DD30FD00FD0BFC2AFC0B49
:1005FE00FC2A000000002E08413A031D0A2B403051
:10060E0086064A30AE0097227008AE007008423A55
:10061E00031D1F2BAF01CE2070088312AF0071088F
:10062E00B0002730B1002D222730AF00B5225C2B51
:10063E002E08433A031D2F2BF4202108AF00220869
:10064E00B0002730B1002D222730AF00B5225C2B31
:10065E002E08443A031D3F2BF4202308AF00240834
:10066E00B0002730B1002D222730AF00B5225C2B11
:10067E002E08463A031D462B023086065C2B2E08AA
:10068E00473A031D4D2B043086065C2B2E08483A44
:10069E00031D542B083086065C2B2E08453A031D8D
:0E06AE005C2B8030860640308606022B5D2BCA
:1006D00020308400053083120313F0006330A5003E
:0806E0000330A600CB22080044
:0206C6003034CE
:0406C80000340034C6
:0406CC0000340034C2
:04400E00F42F000685
:00000001FF
