:020000004D2988
:08000600FA1FF213003008009C
:0E000E00F201F101F001F801F30100300800E9
:10001C007B15FB1F18280130F300F201F101F001F0
:08002C00FA0DF20CFF30080090
:10003400FB14FB1F2428FF30F300F200F100F00052
:08004400FA0DF20CFF30080078
:10004C00A0017208031D3B287108F2007008F10032
:10005C00F001A0157208031D3B287108F200F10194
:10006C00A01120167208031949282008F302031D59
:10007C00031C4D280310F21B5128F00DF10DF20D4D
:10008C00F30B41284D280130FC0007205428023086
:0E009C00FC000E2054280430FC000320080055
:1000AA00831203137008F8007108F000F101F201DD
:1000BA00F301FB01FC019630F300FA017008F1002C
:0C00CA007808F000F801F2012620080080
:1000D6008312031387150630FD00FD0B7028000000
:1000E6000030071A0130F10087110630FD00FD0BC4
:0A00F6007A2800007108F0000800ED
:1001000083120313FB017308031D77080319D72813
:1001100072087606FA007708F3077E30031C9428ED
:10012000F3020318DA289728F302031CDD2872086B
:10013000F8007108FC007008FD00F817F6170310AE
:10014000F201F101F0011830A0007D1CB128740803
:10015000F00775080318750FF10776080318760F76
:10016000F207F20CF10CF00CF80CFC0CFD0C031077
:10017000A00BA528F21BC128F80DF00DF10DF20D12
:10018000F3037B1B701CD328F81FD328F00A031934
:10019000F10A0319F20A031DD328F20CF10CF00C3A
:1001A000F30A0319DA28FA1FF2130030DF280130AE
:1001B0000720DF2802301A20DF2804300E2000003C
:0201C000080035
:1001C20083120313A401A50107100F30A30080308E
:1001D2002306F0008030003A7002031C09296B20CC
:1001E2007008013A031D07292308F2000130F000CC
:1001F2000030F100720803190329F00DF10D70109F
:10020200FF3EFC287008A4047108A504A303E82893
:1002120007142408F0002508F100F10CF00CF1138A
:10022200F10CF00CF113F10CF00CF113552000302D
:10023200F4000030F5000030F6007D30F700802039
:020242000800B2
:1002440083160313871107100716831207148711E7
:100254000230FB000430FC00BA30FD00FD0B3029F5
:0C026400FC0B3029FB0B302900000800C7
:100270008316031789018801031385018312850101
:1002800083168601831286018316870183128701F4
:0A029000831688018312880108001C
:10029A0038212221E1200B30FB002630FC005D30A2
:1002AA00FD00FD0B5629FC0B5629FB0B56290000B5
:0602BA0000004F295F293E
:04400E00F42F000784
:00000001FF
