:02000000C62810
:10000600831603139818092800000328831235085D
:040016009900080045
:0E001A008312031331088A00300882000800A8
:1000280083120313B401320884000008B3003308B4
:10003800003A031929283308B5000320B40A340804
:0C004800320784000008B3001B280800E9
:0E005400013083120313AE000130AF0008002C
:10006200831603139816903083129800831687170D
:10007200071383128C1E40281A08F0003A28080041
:1000820050286728203083120313B20014202F084F
:10009200AE000830AF0067286728672867288312F8
:1000A20003132F08003A031942282F08013A0319B3
:1000B20043282F08093A03194D282F080A3A031931
:0E00C2004E282F08083A03194F284F2808002F
:1000D000831603138711071007168312071487115D
:1000E0000230FB000430FC00BA30FD00FD0B762826
:0C00F000FC0B7628FB0B762800000800B3
:1000FC000D208A110A128000840AB00A0319B10A71
:08010C00F003031D7E2808002A
:100114008312031385010130831685000130031710
:1001240088008130831203139F0083169F01080007
:10013400831603178901880103138501831285013E
:100144008316860183128601831687018312870131
:100154008316880183128801831689018312890119
:10016400333083169900181531200230FB00043017
:10017400FC00BA30FD00FD0BBD28FC0BBD28FB0BB9
:08018400BD2800002A2008003C
:10018C004D3083120313A0000130A1003C30A200BB
:10019C000130A3002030A4000130A5001730A600C8
:1001AC000130A7000D30A8000130A900F830AA00DA
:1001BC000030AB002930AC000130AD009A20682033
:1001CC008A204120663083120313FB007630FC003A
:1001DC00C130FD00FD0BF028FC0BF028FB0BF028C8
:0401EC00E728F728E1
:1001F000413454342B3443344D34473453343D3438
:1002000022343334313435343234383434343934BC
:0A021000383436343334223400341D
:10021A00413454342B3443344D34473446343D341A
:04022A003134003437
:10022E00413454342B3443345234453447343F3400
:02023E0000348A
:10024000413454342B344334503449344E343F34E5
:02025000003478
:100252004D3465346E34733461346A346534003439
:0C026200523445344134443459340034E3
:0A026E004534433432343534003493
:080278004134543449340034D0
:0802800030342C343134003419
:060288004F344B3400343A
:06028E004F344B34003434
:060294004F344B3400342E
:06029A004134543400342D
:0402A0003E340034B4
:04400E00F42F000784
:00000001FF
