:02000000D72AFD
:1000060083120313F801F9011030FC00710DF80D8D
:10001600F90D7408F8027508031C750FF902031828
:100026001B287408F80775080318750FF9070310DD
:0A003600F00DF10DFC0B0928080085
:0E0040000030831203138C1A0130F000080008
:10004E008316031398182D280000272883125808AA
:04005E0099000800FD
:10006200831203131A08F100981C39281812181663
:060072007108F000080017
:0E007800073083120313FD00FD0B4028080023
:1000860083120313FB01FA01F9018030F800F10C29
:10009600F00C031C57287408F90775080318750F28
:1000A600FA070318FB0A0310F01F5F287408FA0703
:1000B60075080318750FFB07FB0CFA0CF90CF80C06
:1000C600031C4A287B08F3007A08F2007908F1003D
:0600D6007808F0000800AC
:1000DC00831203137008F100F0010830FC00710862
:1000EC00F40C03187D28FC0B7628F1010034031066
:1000FC008228F40C0318F107F10CF00CFC0B7F2890
:02010C000800E9
:10010E0083120313DB0105305B02031895285B088D
:10011E005A07840020308000DB0A8A285B085A07C1
:10012E0084008001DB035B085A07DC000A30F40010
:10013E00F5015808F0005908F10003207808F00086
:10014E007908F1003030F0075C08840070088000F8
:10015E000A30F400F5015808F0005908F1000320A8
:10016E007008D8007108D90000307106031DC1282F
:10017E0000307006031DC428C628DB039A28080029
:0E018E00831203133D088A003C08820008001B
:10019C00C330831203139F05C0309F004608F00044
:1001AC00F00D7010F00D701070089F043309F00002
:1001BC00700883169F059F1783121F143C209F14F1
:1001CC009F1CEA280000E6281F101E08F100F00111
:0C01DC0083161E08F0040030F104080037
:1001E80083120313C801460884000008C7004708A3
:1001F800003A031909294708D8002720C80A4808DF
:0C020800460784000008C700FB2808001F
:1002140083120313CF01D001D101D201D301D40140
:100224000A30D5000030D600FF30A000FF30A10016
:10023400FF30A200FF30A3008316061083120614B9
:100244000630FD00FD0B2429000006101830FC00C8
:100254005F30FD00FD0B2C29FC0B2C290614073004
:10026400FD00FD0B3329831606140330FD00FD0B3E
:1002740039298312061C4129FF30F000422A1A3022
:10028400FD00FD0B4329000006184B29FF30F00048
:10029400422A1A30FD00FD0B4D290000CF01053024
:1002A4004F0203188D29D0010830500203188B29FE
:1002B40006185D295A290930FD00FD0B5F2900004D
:1002C4000000061C75294F08463EF300730884009D
:1002D4000008F2007208F000F00D7010701473083A
:1002E400840070088000061886294F08463EF300F3
:1002F400730884000008F2007208F000F00D70101A
:100304007308840070088000061C89298629D00A95
:100314005629CF0A5129831606108312061447085A
:100324004607F000F1010318F10A4808F007031822
:10033400F10A49087007F20071080318013EF3003E
:1003440000307306031DA8294A087206031D402ABB
:100354004608D100D2014808D300D4010A30D500A0
:100364000030D600CF0102304F020318EA294F08AB
:100374004B3ED7005508F4005608F5005108F0002C
:100384005208F100032057088400700880004F08C9
:100394004B3E84000008F0000030F1005508F400E2
:1003A4005608F50043207008D102031CD2037108DB
:1003B400D2020A30F4000030F5005508F000560867
:1003C400F10003207008D5007108D600CF0AB529C2
:1003D4000A30D5000030D6000230CF0004304F027E
:1003E4000318252A4F084B3ED7005508F400560839
:1003F400F5005308F0005408F10003205708840066
:10040400700880004F084B3E84000008F000003064
:10041400F1005508F4005608F50043207008D30293
:10042400031CD4037108D4020A30F4000030F50030
:100434005508F0005608F10003207008D500710833
:10044400D600CF0AF0294D08F0000A30F4006E20DF
:100454004E087007A00071080318013EA1004B0864
:10046400F0000A30F4006E204C087007A2007108F6
:100474000318013EA3000130F000422AFF30F000CF
:0204840008006E
:1004860083120313CB01CC014608CD004708CE00EA
:1004960080304706F00080307002031D542A003079
:1004A60046020318622A0130CB000030CC00460811
:1004B600003CCD004708031C013ECE01CE024D088C
:1004C600D8004E08D9004808DA0087200630C9004F
:1004D6000030CA004A08003C031D732A4908003C44
:1004E60003188E2A49084807F20001304902F00035
:1004F6000030031C013E4A02F100700848078400E0
:100506000008F00072088400700880000130C902FB
:10051600031CCA036D2A48088400203080004B085B
:100526004C040319AC2AC901CA01490848078400CA
:100536000008203A031DA32AC90A0319CA0A982AE1
:100546000130C902031CCA034908480784002D303C
:040556008000080019
:10055A00303083120313C600202070080319B82A0A
:0C056A0031207008C6004608F0000800B0
:10057600C7208A110A128000840ABC0A0319BD0A20
:08058600F003031DBB2A08006D
:10058E0083160313981690308312980083168717DC
:10059E00071383128C1ED62A1A08F000D02A0800E0
:1005AE008623413083120313C50083160317890176
:1005BE008801031385018312850183168601083095
:1005CE00831286008316880183128801831689019F
:1005DE00831289011930831699001815C7228230AB
:1005EE00FC00DD30FD00FD0BFA2AFC0BFA2A0000A0
:1005FE0000004508413A031D082B403086064A305C
:10060E00C500AD227008C5000A214508423A031DF7
:10061E00212BC601CE2070088312C6007108C700B8
:10062E003E30C80043223E30C600F4202C30C600B7
:10063E00F420622B4508433A031D332B2008C600D5
:10064E002108C7003E30C80043223E30C600F420C9
:10065E002430C600F420622B4508443A031D452B76
:10066E002208C6002308C7003E30C80043223E3091
:10067E00C600F4203430C600F420622B4508463AFA
:10068E00031D4C2B02308606622B4508473A031D8C
:10069E00532B04308606622B4508483A031D5A2B0D
:1006AE0008308606622B4508453A031D622B8030C2
:0A06BE00860640308606002B632BF1
:10070C00203084001C3083120313F0006930BC00CD
:08071C000330BD00BB22080000
:0406D20000340034BC
:0406D60000340034B8
:1006DA0068346F346C34613420343234203400345A
:0E06EA0068346F346C346134203431340034A1
:0206F80030349C
:1006FA0068346F346C346134203433342034003439
:04400E00F42F000685
:00000001FF
